:020000040800F2
:10000000280A00200D020008990B00084508000886
:10001000950B0008D70300089F2B00080000000084
:100020000000000000000000000000008D16000825
:10003000DB0300080000000075150008A117000888
:1000400027020008270200082702000827020008EC
:1000500027020008270200082702000827020008DC
:1000600027020008270200082702000827020008CC
:1000700027020008270200082702000827020008BC
:1000800027020008270200082702000827020008AC
:10009000270200082702000827020008270200089C
:1000A000270200082702000827020008451A000856
:1000B0002702000827020008FD1F00082702000889
:1000C000270200082702000827020008270200086C
:1000D000270200087D2900082702000827020008DF
:1000E000270200082702000827020008270200084C
:1000F000270200082702000827020008270200083C
:10010000270200082702000827020008270200082B
:100110002702000827020008E5220008270200083D
:10012000270200082702000827020008270200080B
:1001300000F002F800F05AF80AA090E8000C82449F
:100140008344AAF10107DA4501D100F04FF8AFF27C
:10015000090EBAE80F0013F0010F18BFFB1A43F0A5
:100160000103184768360000883600000A444FF043
:10017000000C10F8013B13F0070408BF10F8014B06
:100180001D1108BF10F8015B641E05D010F8016B4B
:10019000641E01F8016BF9D113F0080F1EBF10F8AF
:1001A000014BAD1C0C1B09D16D1E58BF01F801CBD2
:1001B000FAD505E014F8016B01F8016B6D1EF9D555
:1001C0009142D6D37047000000230024002500266A
:1001D000103A28BF78C1FBD8520728BF30C148BFAA
:1001E0000B6070471FB51FBD10B510BD00F06EF855
:1001F0001146FFF7F7FF02F053FD00F0A0F803B43B
:10020000FFF7F2FF03BC02F0CCFC00000948804776
:1002100009480047FEE7FEE7FEE7FEE7FEE7FEE7E8
:10022000FEE7FEE7FEE7FEE704480549054A064B00
:1002300070470000A51700083101000828040020BD
:10024000280A002028060020280600207047000009
:100250000FB4044910B503AA029800F009F810BCC5
:100260005DF814FB3C0000207047704770477047F2
:10027000074B70B50D467B4400F011F80446284644
:1002800000F020F810B14FF0FF3070BD204670BD77
:100290000B2A000001694A1C02610878704700B50A
:1002A0008FB0CDE901310021059105497944CDE9AF
:1002B00003101146684600F02EF80FB000BD000094
:1002C000E5FFFFFF007B00F080007047754600F0FF
:1002D0003DF8AE4605006946534620F007008546C6
:1002E00018B020B5FFF7A0FFBDE820404FF0000692
:1002F0004FF000074FF000084FF0000B21F007010E
:10030000AC46ACE8C009ACE8C009ACE8C009ACE850
:10031000C0098D4670472DE9F04106460024D6E914
:100320000170F5688046304603E04146B847641CDA
:100330003046A8470028F8D12046BDE8F0810446A1
:10034000AFF300802046FFF75AFF000000487047D7
:10035000C803002010B500F09FFA10BD70B5064626
:100360000C46154608E03046721C96B200F007F8BD
:1003700004F8010B681E85B2002DF4D170BD70B574
:100380000446002600F03EFB2546E11704EB116110
:100390000912A02202EB4101C8B200F0F9FA00F004
:1003A0007DFBE11704EB11610912A4EB0121C8B236
:1003B00000F0EEFA00F072FB00F024FBA12000F048
:1003C000E7FA00F06BFB002000F0AAFA064600F006
:1003D0003FFB304670BD00BFFEE770472DE9F0419E
:1003E000024600250026002000230024002791F863
:1003F00003C00CF00F0591F803C00CF0100CBCF119
:10040000000F03D091F802C04CEA050591F800C036
:10041000BCF1000F31D0146800202BE04FF0010C2C
:100420000CFA00F3B1F800C00CEA03069E4220D19A
:1004300083004FF00F0C0CFA03F7BC4305FA03FCE2
:100440004CEA040491F803C0BCF1280F06D14FF028
:10045000010C0CFA00FCC2F814C00AE091F803C0C9
:10046000BCF1480F05D14FF0010C0CFA00FCC2F8AA
:1004700010C0401C0828D1D31460B1F800C0BCF1F2
:10048000FF0F34DD546800202EE000F1080C4FF01F
:10049000010808FA0CF3B1F800C00CEA03069E420A
:1004A00021D183004FF00F0C0CFA03F7BC4305FA7F
:1004B00003FC4CEA040491F803C0BCF1280F05D1F9
:1004C00000F1080C08FA0CF8C2F8148091F803C087
:1004D000BCF1480F07D100F1080C4FF0010808FAF1
:1004E0000CF8C2F81080401C0828CED35460BDE838
:1004F000F0810000F0B50A46002300240021002509
:1005000000F00046B6F1004F02D11D4EF16901E046
:100510001B4E7168C0F3034583B200F44016B6F574
:10052000401F08D121F07061154E766826F0706684
:10053000134F7E6012E000F48016B6F5801F06D1DE
:10054000032606FA05F4A14341F0706106E0460D6A
:10055000360103FA06F6B14341F0706122B1460D4F
:10056000360103FA06F6314300F00046B6F1004FBB
:1005700002D1034EF16101E0014E7160F0BD000057
:100580000000014041617047016170472DE9F04171
:1005900000204B49486008608860C860494A9168FB
:1005A000494A906802F09EFF0546464A1168464A4D
:1005B000506802F097FF0646424A5168424A106866
:1005C00002F090FF0746314602F0B6FE0446294687
:1005D00002F0B2FE3D4908603A4A91683A4A5069D1
:1005E00002F080FF0546374A1168374A106902F069
:1005F00079FF0646334A5168334AD06802F072FFE9
:100600000746314602F098FE0446294602F094FE61
:100610002E4948602B4A91682B4A106A02F062FF0B
:100620000546284A1168284AD06902F05BFF064651
:10063000244A5168244A906902F054FF0746314623
:1006400002F07AFE0446294602F076FE1F498860D1
:100650001C4A91681C4AD06A02F044FF0546194AB8
:100660001168194A906A02F03DFF0646154A516822
:10067000154A506A02F036FF0746314602F05CFE2A
:100680000446294602F058FE1049C860086802F086
:10069000C1FE0B4948600D49486802F0BBFE08499D
:1006A00008600A49886802F0B5FE05498860074974
:1006B000C86802F0AFFE0249C860BDE8F0810000E2
:1006C000BC0200207C03002088010020B803002029
:1006D0002DE9F041524800685249086052480068CC
:1006E00048605248006888600020514908701DE049
:1006F0004C484F49097850F82100002807DB494849
:100700004B49097850F82100B0F57A6F09DD494866
:100710004749097850F821004249454A127841F882
:10072000220043480078401C414908704048007846
:100730000328DDDB00203E4908700EE039483C49C3
:10074000097850F821003B49394A127841F82200D3
:1007500037480078401C364908703548007803282F
:10076000ECDB30490968A1F5FA6002F0D0FC0646DE
:10077000314A324B02F0E2FC044602F097FC304969
:10078000086028494968A1F5FA6002F0C0FC0646F5
:10079000294A2A4B02F0D2FC044602F087FC284981
:1007A000486020498968A1F5FA6002F0B0FC06466D
:1007B000214A224B02F0C2FC044602F077FC204999
:1007C00088601848006840F26C71884208DD15485E
:1007D000006840F63401884202DA002018490860B7
:1007E0001048406840F26C71884208DD0D4840684E
:1007F00040F63401884202DA002011494860094875
:10080000806840F26C71884208DD0648806840F6D6
:100810003401884202DA002009498860BDE8F0818D
:10082000A4000020C8010020A8000020AC00002087
:10083000B8010020BC010020FCA9F1D24D62303F7C
:100840007C03002000BFFEE710B500200F490860C0
:100850000F48006820F470400D49086008460068A1
:1008600040F44050086000200A49C1F8AC01022061
:1008700002F0E2F9012005490860022002F0DCF9EB
:1008800000200449C1F8A80110BD0000A881214240
:10089000040C01400080214208B50121082000F02D
:1008A0007BFE4FF44060ADF8000010208DF803008F
:1008B00003208DF8020069460448FFF78FFD4FF4CE
:1008C00040610248FFF760FE08BD0000000C0140D7
:1008D00010B500200F4908600F48006820F47040F0
:1008E0000D4908600846006840F440500860012047
:1008F0000A49C1F8AC01022002F09EF90120054925
:100900000860022002F098F900200449C1F8A8010B
:1009100010BD0000A8812142040C0140008021424A
:1009200070B5054600241748006820F4704015494A
:1009300008600846006840F400400860002616E0A1
:10094000002011490860022002F076F901200F49C9
:10095000C1F8A8016006040E0B487C38006808B195
:10096000601CC4B2012002F067F9701CC6B2082EE8
:10097000E6DB15B9FFF7ACFF01E0FFF765FF2046A6
:1009800070BD0000040C0140A8812142008021427A
:1009900070B504461848006820F470401649086095
:1009A0000846006840F44050086000201349086081
:1009B00000251EE0E00920B101201049091D086052
:1009C00003E000200D49091D08606006040E0220A6
:1009D00002F032F9012009490860022002F02CF9E6
:1009E00000200749C1F8A801022002F025F9681C7F
:1009F000C5B2082DDEDB70BD040C0140A881214288
:100A00000080214210B50F48006820F470400D4965
:100A100008600846006840F44050086001200A4918
:100A200008600A49C1F8A801042002F005F9002075
:100A300005490860042002F0FFF800200349C1F8CE
:100A4000A80110BD040C0140AC812142008021426C
:100A500010B50F48006820F470400D490860084642
:100A6000006840F44050086000200A4908600A49C4
:100A7000C1F8AC01042002F0DFF80120054908604C
:100A80000549C1F8AC01042002F0D6F810BD000001
:100A9000040C0140A88121420080214210B50024AD
:100AA0001448006820F47040124908600846006845
:100AB00040F40040086001200F49086002F0BCF8D3
:100AC00001200E49C1F8A80102F0B6F807E0601C49
:100AD000C4B2FA2C03DDFFF7BBFF012010BD0648AE
:100AE000803800680028F2D10349091F086000BF60
:100AF000F4E70000040C0140AC8121420080214257
:100B000008B50121482000F047FD2020ADF8000085
:100B100010208DF8030003208DF802006946094873
:100B2000FFF75CFC20210748FFF72EFD2020ADF8E1
:100B3000000069460448FFF751FC20210248FFF7F6
:100B400023FD08BD000C01400018014000200E49A3
:100B5000086048600D4888600020C86000210A488D
:100B600001610B4941610020074988610021064865
:100B7000C16107490162002003494862002102481F
:100B800081620249C162704788030020B81E053E99
:100B9000B81E05BE00BFFEE77047000070B500211B
:100BA00000230F22C47804B3154C246804F4E064D5
:100BB000C4F5E064210AC1F10403CA40447804FA90
:100BC00003F184781440214309010E4C0678A155A5
:100BD000047804F01F050124AC4005786D11AD00C8
:100BE00005F1E025C5F8004109E0047804F01F058F
:100BF0000124AC40044D0678761145F8264070BDBE
:100C00000CED00E000E400E080E100E00249014377
:100C1000024A1160704700000000FA050CED00E088
:100C20007FB50020FE4988700870C8704870FD4983
:100C30000868FD4902F022FD03D2FA484068F949EC
:100C40000860F8490868F94902F018FC03D2F54831
:100C50004068F4490860F349886DF34902F00EFDDD
:100C600003D2F048C06DEF498865EE49886DEF49C1
:100C700002F004FC03D2EB48C06DEA498865E949FB
:100C8000C86AE94902F0FAFC03D2E648006BE5497C
:100C9000C862E449C86AE54902F0F0FB03D2E148C2
:100CA000006BE049C862DF49D1F88400DE4902F0F8
:100CB000E5FC05D2DB48D0F88800DA49C1F88400A9
:100CC000D849D1F88400D94902F0D8FB05D2D548DB
:100CD000D0F88800D349C1F88400D548006810F1E5
:100CE000070F0BDBD2480068072807DC4FF47A7047
:100CF000D049086048600120C9490870CC48406864
:100D000010F1070F0DDBCA484068072809DC4FF4D3
:100D10007A70C84988600146C648C1600120C04950
:100D20004870C348806810F1070F0DDBC048806829
:100D3000072809DC4FF47A70BE4908610146BD48B6
:100D400041610120B6498870B948C06810F1070FA9
:100D50000DDBB748C068072809DC4FF47A70B54945
:100D600088610146B348C1610120AD49C870AD48F2
:100D70000068AC4948600846C16A0163816DC1657D
:100D8000D0F88410C0F88810A548407800287DD19C
:100D9000A749486802F05AFB0546A248C16A28469E
:100DA00002F09EFC044602F035FB9E498863886B86
:100DB00002F04CFB0546A0480168284602F092FB71
:100DC000044602F027FB9749C8640846816B406BD4
:100DD000091A944801640146086C02F037FB054685
:100DE00095488168284602F07DFB044602F012FB1C
:100DF0008C4948650846C16B806B01448948C163D2
:100E0000C06B8D49C968884203DD8B48C16885483D
:100E1000C1638448C06B8849C9684942884204DA82
:100E20008548C06841427F48C1637E49C86B02F073
:100E30000DFB054680484168284602F053FB0446F6
:100E400002F0E8FA774908650846816B4163C16C96
:100E5000006D01447348406D014472484164416C27
:100E6000806C081A502804DD6E48806C50306D4943
:100E700048646C48416C806C081A10F1500F04DA19
:100E80006848806C50386749486400E045E0654830
:100E9000406C69490969884204DD67480169614815
:100EA00041640BE05F48406C6349096949428842EC
:100EB00004DA6148006941425A4841645948416C2A
:100EC0008164406C00F57A705A4988605548406CDE
:100ED000C0F57A715748C1608068B0F5FA6F04DDDB
:100EE0004FF4FA605349886006E052488068282829
:100EF00002DA28204F4988604E48C068B0F5FA6F82
:100F000004DD4FF4FA614B48C16006E04948C0680F
:100F1000282802DA28214748C16041480078002883
:100F20007CD14349086802F091FA05463D480168C2
:100F3000284602F0D5FB044602F06CFA3949C86035
:100F4000C86802F083FA05463B480168284602F06B
:100F5000C9FA044602F05EFA324908620846C068DF
:100F60008968401A2F494861486902F06FFA0546BE
:100F700031488168284602F0B5FA044602F04AFA80
:100F80002849886208460069C968084425490861FB
:100F9000084600692849C968884203DD2648C068B8
:100FA000204908611F4800692349C96849428842AD
:100FB00004DA2148C06840421A49086119490869A1
:100FC00002F044FA05461C484168284602F08AFAB5
:100FD000044602F01FFA134948620846C068886058
:100FE0000846006A496A08440E49896A08440D495E
:100FF000886108468069C969401A502804DD09489B
:10100000C069503007498861064880690549C96947
:10101000401A10F1500F15DA02480FE059E00000B5
:1010200084010020CC0200200000BE420000BEC2AD
:10103000BC0200209C02002070010020C0695038D2
:10104000FE498861FD488069FD490969884204DDDF
:10105000FB480069F94988610BE0F8488069F84964
:1010600009694942884204DAF54800694042F34977
:101070008861F2488069F149C8610846806900F5D5
:101080007A70F0490860ED488069C0F57A70486070
:1010900008460068B0F5FA6F03DD4FF4FA600860A7
:1010A00006E0E8480068282802DA2820E5490860B8
:1010B000E4484068B0F5FA6F04DD4FF4FA60E149A6
:1010C000486006E0DF484068282802DA2820DD4929
:1010D0004860DD48807800287ED1DC49886802F0CD
:1010E000B5F90546D548816D284602F0F9FA04465F
:1010F00002F090F9D1494866486E02F0A7F905461A
:10110000CF480168284602F0EDF9044602F082F962
:10111000CA4988670846416E006E091AC748C16609
:101120000146C86E02F092F90546C5488168284616
:1011300002F0D8F9044602F06DF9C049C1F8800008
:101140000846816E406E0144BC488166806EBC4991
:10115000C968884203DDBA48C168B8488166B748A3
:10116000806EB749C9684942884204DAB448C06809
:101170004142B2488166B149886E02F067F905467E
:10118000AF484168284602F0ADF9044602F042F942
:10119000AA49C8670846416E0166816FC06F014465
:1011A000A648D0F880000144A4480167016F406F51
:1011B000081A502804DDA148406F50309F49086745
:1011C0009E48016F406F081A10F1500F06DA9B48D5
:1011D000406F5038994900E046E008679748006F33
:1011E00097490969884204DD954801699348016778
:1011F0000BE09248006F924909694942884204DA3B
:101200008F48006941428D4801678C48016F4167F2
:10121000006F00F57A708B4908618848006FC0F54F
:101220007A71884841610069B0F5FA6F04DD4FF4C6
:10123000FA608449086106E082480069282802DAD9
:101240002820804908617F484069B0F5FA6F04DDC5
:101250004FF4FA617B48416106E07A4840692828EA
:1012600002DA2821774841617748C07800287DD18B
:101270007649C86802F0EAF805467048D0F884104C
:10128000284602F02DFA044602F0C4F86B49C1F872
:101290009000D1F8900002F0D9F80546684801683E
:1012A000284602F01FF9044602F0B4F86349C1F879
:1012B000A4000846D0F89010D0F88C00091A5F48B6
:1012C000C0F898100146D1F8980002F0BFF8054622
:1012D0005B488168284602F005F9044602F09AF856
:1012E0005649C1F8AC000846D0F89410D0F89000E8
:1012F00001445248C0F89410D0F894005049C9688D
:10130000884204DD4E48C1684C48C0F894104B48F0
:10131000D0F894004A49C9684942884205DA4848E9
:10132000C06841424548C0F894104449D1F894003F
:1013300002F08CF8054642484168284602F0D2F88F
:10134000044602F067F83D49C1F8A8000846D0F805
:101350009010C0F88C10D0F8A410D0F8A800014468
:101360003648D0F8AC000144344800E077E0C0F8DB
:101370009C10D0F89C10D0F8A000081A502806DD68
:101380002E48D0F8A00050302C49C1F89C002B48C2
:10139000D0F89C10D0F8A000081A10F1500F06DA0F
:1013A0002648D0F8A00050382449C1F89C002348B2
:1013B000D0F89C0022490969884205DD204801696E
:1013C0001E48C0F89C100DE01C48D0F89C001C4939
:1013D00009694942884205DA1948006941421748BB
:1013E000C0F89C101548D0F89C10C0F8A010D0F898
:1013F0009C0000F57A70134988611048D0F89C0071
:10140000C0F57A710F48C1618069B0F5FA6F04DDEB
:101410004FF4FA600B49886106E00A488069282881
:1014200002DA2820074988610648C069B0F5FA6FDA
:101430000EDD4FF4FA610348C16110E0CC020020D8
:10144000700100209C02002084010020BC020020CA
:101450001248C069282802DA28211048C1610F48C3
:10146000808B81B20D48008B80B20C4A928A92B276
:101470000A4B1B8A9BB2094CCDE90032CDE902012F
:10148000A488A3B2054C2488A2B2044CA489A1B2BA
:10149000024C2489A0B201F0A1F97FBD9C0200207A
:1014A000002022490860486048610861C86088607F
:1014B0008862486208628861C861C1F884000021BE
:1014C0001A48C0F88810C0F89810C0F89410C0F8F6
:1014D0009010C0F88C10C0F8AC10C0F8A810C0F87C
:1014E000A410C0F89C10C0F8A01000200F49C862DA
:1014F00000210E4801630164C1638163416341655A
:101500000165C16441648164002008498865002147
:101510000648C165C166816641660166C0F88010F3
:10152000C16781670167416770470000CC020020F6
:1015300008B50121C02000F02FF80121802000F023
:101540002BF81C20ADF8000028208DF80300694618
:101550000648FEF743FF0120ADF8000028208DF873
:10156000030069460248FEF739FF08BD0018014034
:10157000001C01407047000029B1064AD2690243AD
:10158000044BDA6104E0034AD2698243014BDA6119
:10159000704700000010024029B1064A92690243D8
:1015A000044B9A6104E0034A92698243014B9A61B9
:1015B000704700000010024030B5002100220024D6
:1015C00000232D4D6D6805F00C0121B1042905D0D3
:1015D000082923D105E0294D056022E0274D05604B
:1015E0001FE0254D6D6805F47012234D6D6805F4FC
:1015F0008034022505EB92421CB9214D554305600C
:101600000BE01D4D6D6805F400351DB11C4D5543B3
:10161000056002E0194D5543056002E0174D056075
:1016200000BF00BF144D6D6805F0F0010909154DAC
:101630006B5C0568DD4045600F4D6D6805F4E06149
:10164000090A104D6B5C4568DD4085600A4D6D6888
:1016500005F46051C90A0B4D6B5C4568DD40C560FF
:10166000054D6D6805F44041890B074D6B5CC568FD
:10167000B5FBF3F5056130BD0010024000127A00A1
:1016800000093D004200002052000020704710B5C4
:1016900000F002F810BD00000CB500200190009091
:1016A0003348006840F480303149086000BF30485A
:1016B000006800F4003000900198401C01900098F0
:1016C00018B90198B0F5A06FF1D12948006800F46D
:1016D000003010B10120009001E00020009000983F
:1016E000012843D12348006840F0100021490860D8
:1016F0000846006820F0030008600846006840F0D3
:10170000020008601A484068194948600846406865
:1017100048600846406840F4806048600846406879
:1017200020F47C1048600846406840F4E8104860A7
:101730000846006840F08070086000BF0C480068F0
:1017400000F000700028F9D00948406820F003003C
:10175000074948600846406840F00200486000BF02
:101760000348406800F00C000828F9D10CBD0000C7
:101770000010024000200240042808D14FF0E02170
:10178000096941F004014FF0E022116107E04FF0D8
:10179000E021096921F004014FF0E0221161704756
:1017A0007047000010B51348006840F0010011496F
:1017B000086008464068104908400E4948600846DD
:1017C00000680E4908400B4908600846006820F48C
:1017D000802008600846406820F4FE0048604FF40E
:1017E0001F008860FFF753FF4FF000600449086056
:1017F00010BD0000001002400000FFF8FFFFF6FEE1
:1018000008ED00E0F0B50C46154600220021068CDC
:101810004FF6FE773E400684028B018C4FF60C7625
:1018200032407E1C06EA03162E433243104EB0426D
:101830000ED0104EB0420BD0B0F1804F08D00E4EFB
:10184000B04205D00D4EB04202D00D4EB04206D18E
:101850004FF6FD76314044F00106314305E04FF686
:10186000F576314044F00106314302830184F0BD36
:10187000002C0140003401400004004000080040FA
:10188000000C0040F0B50C46154600220021002651
:10189000078C4FF6EF7C07EA0C070784028B018C5C
:1018A0004FF6FF7707EA041640F6FF473A404FF637
:1018B000FF7707EA03373A434FF6FF7707EA052732
:1018C0003A43114FB8420ED0104FB8420BD0B0F18E
:1018D000804F08D00E4FB84205D00E4FB84202D00C
:1018E0000D4FB84206D14FF6DF77394046F010076A
:1018F000394305E04FF65F77394044F0100739432C
:1019000002830184F0BD0000002C0140003401403E
:101910000004004000080040000C0040F0B50C46F8
:101920001546002200210026078C4FF6FF6C07EABF
:101930000C070784828B018C4FF6FF7707EA042699
:101940004FF60C773A404FF6FF7707EA03172F431D
:101950003A43114FB8420ED0104FB8420BD0B0F1FD
:10196000804F08D00E4FB84205D00E4FB84202D07B
:101970000D4FB84206D14FF6FF57394046F48077F5
:10198000394305E04FF2FF57394044F4807739433B
:1019900082830184F0BD0000002C0140003401402E
:1019A0000004004000080040000C0040F0B50C4668
:1019B0001546002200210026078C4EF6FF7C07EA20
:1019C0000C070784828B018C4FF6FF7707EA0436F9
:1019D00040F6FF473A404FF6FF7707EA05273A43BC
:1019E0004FF6FF7707EA03373A43114FB8420ED05C
:1019F000104FB8420BD0B0F1804F08D00E4FB84214
:101A000005D00E4FB84202D00D4FB84206D14DF668
:101A1000FF77394046F48057394305E047F6FF57D2
:101A2000394044F48057394382830184F0BD00007B
:101A3000002C014000340140000400400008004038
:101A4000000C004010B5D248007800F0800000285B
:101A500061D10221CF4800F0C7FC00285BD0CC4800
:101A6000007800F04000002843D0C948007840F0DA
:101A70008000C7490870C74800F0A9FCC649086043
:101A80000021C44800F06EFDC3480068C3490968DE
:101A9000884209DAC1480068BF490968401AC0F5A0
:101AA0008030BF49086006E0BB480068BB49096850
:101AB000401ABB490860BA480068BA490860B8488B
:101AC0000068B94991FBF0F404EBD471481001F0BF
:101AD000BDFCB649C862B648006818B10120B549D6
:101AE000087002E00020B34908700020A84908707F
:101AF00011E00020A6490870A64800F068FCA7493C
:101B00000860A348007840F04000A1490870022115
:101B1000A04800F027FDA848007800F080000028C9
:101B200062D104219B4800F05FFC00285CD0A248F1
:101B3000007800F04000002844D09F48007840F032
:101B400080009D490870934800F044FC9B49086060
:101B50000021904800F06AFD98480068984909689B
:101B6000884209DA9648006894490968401AC0F525
:101B700080309449086006E0904800689049096800
:101B8000401A904908608F4800688F4908608D4866
:101B90000068854991FBF0F404EBD471481001F022
:101BA00055FC824908608248001D006818B1012078
:101BB0008049487002E000207E49487000207E493C
:101BC000087011E000207C490870724800F002FCA7
:101BD0007B4908607848007840F0400076490870FA
:101BE00002216C4800F022FD7848007800F0800067
:101BF000002862D10821674800F0F6FB00285CD07D
:101C00007248007800F04000E8B37048007840F077
:101C100080006E4908705F4800F0DFFB6C49086087
:101C200000215C4800F06CFD69480068694909685A
:101C3000884209DA6748006865490968401AC0F5B2
:101C400080306549086006E06148006861490968BC
:101C5000401A6149086060480068604908605E4851
:101C60000068514991FBF0F404EBD471481001F085
:101C7000EDFB4E4988654E480830006820B10120D0
:101C80004C49887003E006E000204A498870002033
:101C90004E49087011E000204C4908703D4800F0A2
:101CA0009CFB4C4908604948007840F04000474997
:101CB00008700221374800F023FD4948007800F001
:101CC000800000285ED11021324800F08DFB0028F2
:101CD00058D04348007800F04000C8B3404800782E
:101CE00040F080003E4908702A4800F079FB3D49E9
:101CF00008600021274800F057FD3A4800683A493B
:101D00000968884209DA3848006836490968401A83
:101D1000C0F580303549086006E032480068324935
:101D20000968401A31490860304800681E4991FB33
:101D3000F0F404EBD471481001F088FB1B49C1F8A2
:101D400084002B48006820B101201A49C87003E0C4
:101D500006E000201749C87000202149087011E0F2
:101D600000201F4908700B4800F03AFB1E4908602C
:101D70001B48007840F040001949087002210548CE
:101D800000F012FD1F21034800F012FB10BD0000FF
:101D9000B9000020002C0140C0000020BC00002041
:101DA000EC000020FC0000202D310100CC020020BE
:101DB0000801234289000020C4000020CC0000203C
:101DC000C8000020F000002000010020D00000200A
:101DD000D8000020D4000020F400002004010020DE
:101DE000DC000020E4000020E0000020F8000020DB
:101DF0000081234230B589B005460C4601210846D2
:101E0000FFF7BAFB01210520FFF7C6FB0F20ADF855
:101E1000200018208DF8230003208DF8220008A947
:101E20002448FEF7DBFAADF81850ADF81440002056
:101E3000ADF81A00ADF8160005A94FF0804000F08B
:101E40001BFD6020ADF804000120ADF80600002065
:101E5000ADF80A00ADF80C0001A94FF0804000F089
:101E600035FB0821C80600F086FB01A94FF0804031
:101E700000F08AFB0821C80600F0E5FB01A94FF03D
:101E8000804000F0EDFB0821C80600F046FC01A9E7
:101E90004FF0804000F04AFC0821C80600F091FC99
:101EA0000121880700F078FA0121880700F083FA01
:101EB00009B030BD000801402DE9F04104460F464D
:101EC00015461E4621464FF0804000F09FFC3946E3
:101ED0004FF0804000F09CFC29464FF0804000F01D
:101EE00099FC31464FF0804000F096FCBDE8F0814F
:101EF00030B589B005460C4601210220FFF73CFBB6
:101F000001211120FFF748FB01212C48FEF7F2FACE
:101F10004FF47070ADF8200018208DF823000320D6
:101F20008DF8220008A92648FEF758FA4FF4707180
:101F30002348FEF729FBADF81850ADF814400020F7
:101F4000ADF81A00ADF8160005A91E4800F094FC83
:101F50006020ADF804000120ADF806000020ADF8C7
:101F60000A00ADF80C0001A9164800F0AFFA0821EC
:101F7000144800F000FB01A9124800F005FB0821FD
:101F8000104800F060FB01A90E4800F069FB082131
:101F90000C4800F0C2FB01A90A4800F0C7FB082169
:101FA000084800F00EFC0121064800F0F5F9012177
:101FB000044800F000FA09B030BD0000000C1A001F
:101FC00000100140000400402DE9F04104460F4696
:101FD00015461E462146084800F018FC39460648BA
:101FE00000F016FC2946044800F014FC3146024873
:101FF00000F012FCBDE8F0810004004010B5A448D8
:10200000007800F0800000284AD10221A14800F0A9
:10201000EBF9002844D09E48007800F0400068B3F7
:102020009B48007840F0800099490870994800F07A
:10203000CEF9994908600021964800F093FA964835
:10204000006896490968884209DA9448006892490C
:102050000968401AC0F580309149086006E08E4852
:1020600000688E490968401A8D4908608C480068EC
:102070008C49086000208649087011E000208449DE
:102080000870844800F0A3F984490860804800780B
:1020900040F040007E49087002217E4800F062FA5C
:1020A0008148007800F0800000284AD10421794856
:1020B00000F09AF9002844D07B48007800F04000F6
:1020C00068B37948007840F080007749087071481B
:1020D00000F080F97549086000216E4800F0A6FA0A
:1020E0007248006872490968884209DA70480068D5
:1020F0006E490968401AC0F580306E49086006E0F4
:102100006A4800686A490968401A6A49086069486B
:1021100000686949086000206349087011E00020E8
:10212000614908705B4800F055F9614908605E48F4
:10213000007840F040005C4908700221554800F0EA
:1021400075FA5E48007800F0800000284AD1082126
:10215000504800F049F9002844D05848007800F071
:10216000400068B35548007840F08000534908703B
:10217000484800F032F9524908600021454800F013
:10218000BFFA4F4800684F490968884209DA4D484C
:1021900000684B490968401AC0F580304A49086018
:1021A00006E04748006847490968401A4649086000
:1021B000454800684549086000204049087011E022
:1021C00000203E490870334800F007F93D49086097
:1021D0003A48007840F040003849087002212D4804
:1021E00000F08EFA3A48007800F08000002849D1CB
:1021F0001021284800F0F8F888B33548007800F03E
:10220000400068B33248007840F0800030490870E0
:10221000204800F0E5F82F49086000211D4800F033
:10222000C3FA2C4800682C490968884209DA2A4810
:10223000006828490968401AC0F5803027490860BD
:1022400006E02448006824490968401A23490860C8
:10225000224800682249086000201D49087011E0EA
:1022600000201B4908700B4800F0BAF81A490860B2
:102270001748007840F040001549087002210548D1
:1022800000F092FA1F21034800F092F810BD000000
:102290005800002000080040600000205C00002082
:1022A00090000020A4000020640000206C000020AA
:1022B0006800002094000020A8000020700000208A
:1022C000780000207400002098000020AC0000205E
:1022D0007C00002084000020800000209C00002062
:1022E000B000002010B50121244800F07DF800283E
:1022F00042D02348007830B12248C16A224801F018
:10230000F1F82049C8621E48407830B91D4801687C
:102310001D4801F0E7F81B4908601948807830B97A
:102320001848816D184801F0DDF816498865144891
:10233000C07840B11348D0F88410134801F0D2F8A7
:102340001049C1F884001148006808B9012000E074
:1023500000200E490860FEF7BBF9FEF717F90C489C
:102360000FC8FEF75DFC0B480078401C0949087057
:102370000121024800F01CF810BD000000100040D0
:1023800089000020CC020020000080BF94812142FF
:10239000BC0200200D00002021B1028842F0800222
:1023A000028004E002884FF67F731A400280704773
:1023B000CA430282704721B1028842F001020280C2
:1023C00004E002884FF6FE731A400280704701460F
:1023D000888E70470146088F70470146888F704786
:1023E0000146B1F84000704730B502460020002396
:1023F0000024158A05EA0103958905EA010413B151
:102400000CB1012000E0002030BD000070B5054691
:102410000C46244885420ED0234885420BD0B5F1A6
:10242000804F08D02148854205D02148854202D0FE
:102430002048854200D100E000BF208850B92389A0
:10244000A28861882846FFF7DDF9E188284600F078
:10245000E6F925E0208804280AD12389A28861882A
:102460002846FFF70FFAE188284600F0E1F917E067
:10247000208808280AD12389A28861882846FFF786
:102480004DFAE188284600F0E0F909E02389A288A6
:1024900061882846FFF78AFAE188284600F0DEF9CD
:1024A00070BD0000002C01400034014000040040D9
:1024B00000080040000C00401AB183890B4383815F
:1024C00002E083898B4383817047000070B500244C
:1024D00000220023058C4FF6FE7635400584028CE1
:1024E0008388048B4FF68F752C40B51E2C400D88C9
:1024F0002C43751E2A400D892A434D882A43144DCA
:10250000A8420BD0134DA84208D0134DA84205D0C5
:10251000124DA84202D0124DA84213D14FF6F775C2
:102520002A404D892A434FF6FB752A408D882A435D
:102530004FF6FF652B404FF6FF552B408D892B43FF
:10254000CD892B4383800483CD888586028470BD2A
:10255000002C014000340140004001400044014093
:10256000004801400A460021018C4FF6FD731940D6
:102570001143018470470A460021018B4FF6F7731F
:10258000194011430183704770B5002400220023D5
:10259000058C4FF6EF7635400584028C8388048BDA
:1025A00048F6FF752C404FF6FF452C400D884FF63E
:1025B000FF7606EA05252C434FF6DF752A400D8984
:1025C00006EA05152A434D8806EA05152A43154DE6
:1025D000A84202D0144DA8421DD14FF67F752A4063
:1025E0004D894FF6FF7606EA05152A434FF6BF756B
:1025F0002A408D8806EA05152A434FF6FF352B4001
:102600004FF2FF752B408D8906EA85052B43CD8956
:1026100006EA85052B4383800483CD8805870284E1
:1026200070BD0000002C0140003401400A4600212A
:10263000018C4FF6DF7319404FF6FF7303EA021364
:102640001943018470470A460021018B4FF2FF7342
:1026500019404FF6FF7303EA0223194301837047C1
:1026600070B5002400220023058C4FF6FF6635402C
:102670000584028C8388848B4FF68F752C404FF62F
:10268000FC752C400D882C434FF6FF552A400D89D0
:102690004FF6FF7606EA05252A434D8806EA05250A
:1026A0002A43154DA84202D0144DA8421DD14FF225
:1026B000FF752A404D894FF6FF7606EA05252A4325
:1026C0004FF6FF352A408D8806EA05252A434EF647
:1026D000FF752B404DF6FF752B408D8906EA0515D9
:1026E0002B43CD8906EA05152B4383808483CD884F
:1026F0008587028470BD0000002C01400034014039
:102700000A460021018C4FF6FF5319404FF6FF7324
:1027100003EA02231943018470470A460021818B92
:102720004FF6F773194011438183704770B500224B
:1027300000230024058C4EF6FF7635400584038C7B
:102740008488828B48F6FF752A404FF6FF452A4061
:102750000D884FF6FF7606EA05252A434DF6FF75EC
:102760002B400D8906EA05352B434D8806EA0535D1
:102770002B430B4DA84202D00A4DA84208D14BF67C
:10278000FF752C408D894FF6FF7606EA85152C43A0
:1027900084808283CD88A0F84050038470BD0000FF
:1027A000002C0140003401400A460021018C4DF606
:1027B000FF7319404FF6FF7303EA02331943018494
:1027C00070470A460021818B4FF2FF7319404FF684
:1027D000FF7303EA02231943818370472DE9F05FF9
:1027E00004460D4616461F46DDE90CABDDE90A89B5
:1027F0003B46324629462046FFF75EFB5B46524683
:1028000049464046FFF7E0FBBDE8F09F81867047F0
:102810000187704781877047A0F840107047028B8E
:102820004FF6F3731A400283028B0A430283704708
:10283000028B4FF2FF331A400283028B4FF6FF7375
:1028400003EA01231A4302837047828B4FF6F37326
:102850001A408283828B0A4382837047828B4FF2B5
:10286000FF331A408283828B4FF6FF7303EA012302
:102870001A43828370470000002202881D4B984251
:102880000ED01D4B98420BD0B0F1804F08D01B4B9F
:10289000984205D01A4B984202D01A4B984204D164
:1028A0004FF68F731A404B881A43174B984207D044
:1028B000164B984204D04FF6FF431A40CB881A4378
:1028C00002808B8883850B8803850A4B98420BD046
:1028D000094B984208D00E4B984205D00D4B9842B8
:1028E00002D00D4B984201D10B7A038601238382DB
:1028F00070470000002C01400034014000040040FB
:1029000000080040000C004000100040001400408F
:102910000040014000440140004801407FB50546A9
:102920000C4601211020FEF727FEADF80850ADF847
:1029300004400020ADF80A00ADF8060001A90E48D9
:10294000FFF79AFF012211460B48FFF7B5FD36202D
:102950008DF8000002208DF8010003208DF80200A0
:1029600001208DF803006846FEF718F9012102489E
:10297000FFF721FD7FBD00000010004010B540F2C0
:1029800025511D4800F04AF810B31B4800F002F929
:10299000C4B21A48008800F40040C8B9174800883B
:1029A00000F4804060B10A2C03D000201349088055
:1029B00020E01248008840F400401049088019E0E7
:1029C000FD2C06D10D48008840F480400B4908805A
:1029D00010E00A480088C0F30D0009490C5407486C
:1029E0000088401C0549088008460088C72801DD8A
:1029F0000020088010BD0000003801404000002089
:102A0000D401002021B1828942F40052828104E085
:102A100082894DF6FF731A408281704770B5024675
:102A2000002400230025002040F66A16B14200D1A0
:102A300000BFC1F3421501F01F03012606FA03F39C
:102A4000012D02D19689334006E0022D02D1168A6B
:102A5000334001E0968A33400C12012606FA04F452
:102A60001688344013B10CB1012000E0002070BD85
:102A7000F0B50346002400260025002040F66A1722
:102A8000B94200D100BF1846C1F3421401F01F063D
:102A9000012707FA06F5012C01D10C3004E0022CC5
:102AA00001D1103000E014301AB107682F430760DD
:102AB00002E00768AF430760F0BD00002DE9F04772
:102AC00086B005460E460024A24600BFA146002758
:102AD000B08900B100BF2F462C8A4CF6FF7004402D
:102AE000F08804432C82AC894EF6F3100440B08881
:102AF00031890843718908430443AC81AC8A4FF69D
:102B0000FF400440B0890443AC8201A8FEF754FDA5
:102B10001F48874202D1DDF810A001E0DDF80CA0CB
:102B2000A88900F4004040B10AEBCA0000EB0A108B
:102B300031684900B0FBF1F807E00AEBCA0000EB8E
:102B40000A1031688900B0FBF1F86420B8FBF0F09E
:102B500004012009642101FB1089A88900F40040C8
:102B600040B1322000EBC900B0FBF1F000F00700EB
:102B7000044308E0322000EB09106421B0FBF1F0BF
:102B800000F00F0004432C8106B0BDE8F087000080
:102B90000038014001468888C0F30800704700BF34
:102BA000FEE7014600BF704710B56FF00400FEF766
:102BB000E3FD0A4800680A49B0FBF1F009490870D2
:102BC0000846007800EB4001C1EBC0104FF6FF71E2
:102BD00001EAC0000449088010BD00002400002064
:102BE00000127A00380000203A0000200146114A05
:102BF00012884A434FF0E0235A6100229A611A4634
:102C0000126942F001021A6100BF4FF0E022106920
:102C100000F001021AB100F48032002AF5D04FF022
:102C2000E022126922F001024FF0E0231A61002233
:102C30009A6170473A0000200146114A12784A43CF
:102C40004FF0E0235A6100229A611A46126942F05D
:102C500001021A6100BF4FF0E022106900F001028A
:102C60001AB100F48032002AF5D04FF0E022126948
:102C700022F001024FF0E0231A6100229A617047AE
:102C80003800002000BF054A128802F04002002AE6
:102C9000F9D0C2B2014B1B1D1A80704700380140A9
:102CA0000EB525A207CA8DE8070000BFFFF77CFF1D
:102CB00000202449086041F61F413C20FFF72EFE0A
:102CC00000F0FCF800F052F84FF4A060FDF79EFF12
:102CD0004FF4E13000F09AF9FDF738FF472140F258
:102CE000CF70FFF705F9472140F2CF70FFF782F868
:102CF000FDF730FB4FF47A70FFF778FF4FF47A70EE
:102D0000FFF774FFFEF714FCFEF7CAFBFDF7F8FEB1
:102D10000DA0FDF79DFA06220E490020FDF71EFBCF
:102D20000DA0FDF795FA05E00F48007810B10020DE
:102D30000D490870F8E70000FDFDFDFDFDFDFDFDFE
:102D4000FD00000008000020616C6C206F6B0D0A14
:102D5000000000001500002020636861636B206F95
:102D60006B210D0A000000000D00002000B589B0A5
:102D700001210420FEF700FC01210920FEF70CFCD4
:102D800001210803FDF7B6FB4FF47040ADF82000B9
:102D900028208DF8230008A94648FDF71FFB4FF4B3
:102DA00070414448FDF7EEFB4FF6FF70ADF8180098
:102DB0004720ADF814000020ADF81A00ADF8160059
:102DC00005A93D48FFF758FD0020ADF80800ADF813
:102DD0000A000120ADF80C000020ADF80E00ADF89F
:102DE000100002A93448FFF711FB0420ADF80800D9
:102DF0000020ADF80A000120ADF80C000020ADF86D
:102E00000E00ADF8100002A92B48FFF7FFFA0820CA
:102E1000ADF808000020ADF80A000120ADF80C0064
:102E20000020ADF80E00ADF8100002A92248FFF70F
:102E3000EDFA0C20ADF808000020ADF80A000120E2
:102E4000ADF80C000020ADF80E00ADF8100002A99E
:102E50001948FFF7DBFA1E208DF8040001208DF8D9
:102E6000050002208DF8060001208DF8070001A85A
:102E7000FDF794FE012203210F48FFF71DFB0122FD
:102E800002210D48FFF718FB012204210A48FFF731
:102E900013FB012208210848FFF70EFB0122102135
:102EA0000548FFF709FB01210348FFF784FA09B041
:102EB00000BD0000001401400008004000B589B0CA
:102EC0000121C802FEF768FB01214120FEF764FBE7
:102ED00001214B48FDF70EFB4FF4D440ADF8200024
:102EE00028208DF8230008A94648FDF777FA4FF40B
:102EF000D4414448FDF746FB4FF6FF70ADF818008B
:102F00004720ADF814000020ADF81A00ADF8160007
:102F100005A93D48FFF7B0FC0020ADF80800ADF86A
:102F20000A000120ADF80C000020ADF80E00ADF84D
:102F3000100002A93448FFF769FA0420ADF8080030
:102F40000020ADF80A000120ADF80C000020ADF81B
:102F50000E00ADF8100002A92B48FFF757FA082021
:102F6000ADF808000020ADF80A000120ADF80C0013
:102F70000020ADF80E00ADF8100002A92248FFF7BE
:102F800045FA0C20ADF808000020ADF80A00012039
:102F9000ADF80C000020ADF80E00ADF8100002A94D
:102FA0001948FFF733FA1B208DF8040003208DF831
:102FB00005008DF8060001208DF8070001A8FDF737
:102FC000EDFD012203211048FFF776FA01220221CC
:102FD0000D48FFF771FA012204210B48FFF76CFA44
:102FE000012208210848FFF767FA0122102106484C
:102FF000FFF762FA01210448FFF7DDF909B000BDCF
:10300000C000160000180140002C014010B586B029
:103010000446012144F20400FEF7BEFA4FF40070AA
:10302000ADF8140003208DF8160018208DF8170055
:1030300005A91C48FDF7D2F94FF48060ADF81400E3
:1030400004208DF8170005A91648FDF7C7F92520BB
:103050008DF8000003208DF801008DF8020001209A
:103060008DF803006846FDF799FD01940020ADF846
:103070000800ADF80A00ADF80C00ADF810000C2007
:10308000ADF80E0001A90848FFF718FD012240F233
:1030900025510548FFF7ECFC01210348FFF7B2FC7E
:1030A00006B010BD000801400038014021F0004288
:1030B000A2F16052B2F5801F01F0004328BFD2F1A7
:1030C0007F6C0BD95FEA001C43EAC20242EB5070EE
:1030D00018BF704728BF20F001007047B2F5801F6D
:1030E000BCBF184670474FEA410C1CF5001F02D2C6
:1030F000084600F0BEBA70B500F0CAF800000089BA
:10310000FFF7F6BF4FF00040A0F58000704710F0C9
:10311000004248BF4042B0FA80F310FA03F10AD0EF
:10312000C3F11D0303F580634FEA415002EB0352E4
:1031300002EBD12170474FF000007047DFF848C123
:1031400070B51CEA111E1EBF1CEA13159EEA0C0F77
:1031500095EA0C0F00F06F8081EA030423EA4C1318
:103160004EEAD47E21EA4C1141F4801143F48013DD
:10317000AE44A1FB024CA0FB0365AEF17F7E361985
:1031800055EB0C05A1FB034C4CF10003A0FB021C0A
:1031900016EB0C06654153F10003094218BF46F0D7
:1031A000010613F4007F0BD14FEA03314FEA0530DB
:1031B000340341EA155140EA16506FF003020AE069
:1031C0004FEAC3214FEAC520F40241EA555140EAD3
:1031D00056506FF0020202EB2E4201EB025585EAD7
:1031E000CE710AD05FEA440C18BF24F0004450F1BD
:1031F000000041F1000120EAD47040F2FE7C6245FB
:1032000000D270BDA84214BF4FF080444FF040443C
:10321000002E08BF0024BEF1806FA8BFA1F1C041FD
:10322000BDE8704080F282804FF0000001F1C041A3
:1032300001F0004170479EEA0C0F0CEA131518BF0D
:1032400095EA0C0F06D04FF0000081EA030E0EF055
:10325000004170BD00F01CF88900013E00F007B885
:1032600000F009B84FEA430C5FEA5C5C08D081EAE1
:10327000030100F05BB84FEA410C5FEA5C5CF6D1F9
:103280004FF00000014970470000FF070000F87F81
:103290000EF1020E2EF0030E5EF8046B364205D4DA
:1032A000012A43EB030515F5001F12D8012841EB55
:1032B000010C1CF5001F0CD80ED14FEAD17C15F57E
:1032C000001F0CEB4C0C0CF1020C08BF4CEBD37C38
:1032D00004E04FF0080C01E04FEAD37C0CEB4C0506
:1032E00026FA05F606F00706B6F1040C06D20EEB38
:1032F000860CBDE870404CF0010C6047DFE80CF034
:10330000090B02024FF000414FF00000A1F500212F
:1033100070BD19461046012851EB010418BFD4F5C1
:10332000001484BF002001F0004170BD0808A0F522
:1033300000114FEA3101704790EA010F48BF81F058
:10334000004100F1D481421A3CBF801A89184FEA2B
:10335000D0524FF07F4C1CEA410FA2EBD15318BF63
:103360009CEA026F00F03B804FF0004C4CEA0020DA
:103370004CEA012121FA03FC10EB0C0C1ED202F1E5
:10338000FF325FEA1C2040EBC25038BF70471CF090
:103390007F0F4FEA400C18BFBCF17F4F38BF70471A
:1033A000C3F12003994008BF20F00100BCF17F4F1A
:1033B00038BF7047A0F1C04000F05BB94FEA3C0055
:1033C000000A40EBC25028BF1CF0FF0F4FEA400C30
:1033D000E6D018BFBCF17F4F38BF7047EAE79CEAE0
:1033E000026F05D010EA5C0F08BF00F00040704784
:1033F00010B500F0F8F800BF64FBBE3E401058BFA7
:10340000C0F14040491058BFC1F140418142EFF343
:103410000080704741000B0ED3F19E0208D950F492
:1034200000034FEA032323FA02F048BF40427047EB
:1034300010B500F0D8F800BF4992248000207047F2
:103440006FF0004282EA20007047000010F0004157
:1034500048BF4042B0FA80F310FA03F2C3F19D0373
:103460000BD051EAC35101EB1220530638BF70470D
:1034700000F1010008BF20F00100704750EA010C84
:1034800000F113801CF5000F58BFBCF5000F01D4EC
:103490008842704707D710F5000F58BF11F5000F8D
:1034A00015D488427047894270471CF5000F04D537
:1034B000BCF5000FF7D5814270474FF0807C1CEBC4
:1034C000400F38BF1CEB410F01D28142704710B54D
:1034D00000F089F8922449004FF000504FF08051DD
:1034E000FFF78CBF4FF47F0C1CEAD0121EBF1CEA02
:1034F000D11392EA0C0F93EA0C0F00F0478090EA88
:10350000010F48BF42F480724FF0004C4CEA00209B
:103510004CEA012102EB0302A0FB0113A2F5000219
:10352000002918BF43F001035B0028BF4FEA3303B3
:1035300042EB22425FEA132C4CEBC2502EBFBCEB95
:10354000436FB2F57C0F70474FEA036CBCF1004F3C
:1035500008BF20F00100B2F57C0F38BF70470BD5D3
:1035600082F0FF0212F5803FC8BF704700F1C040F3
:10357000D8BF00F00040704700F5000C5FEA4C0C2B
:1035800048BF7047B0F1C04000F073B890EA010F37
:103590000CEAD11348BF42F48072624538BF6345DC
:1035A00004D280EA010000F00040704710B500F03E
:1035B0001AF800BF8900013E00F007B800F009B812
:1035C0005FEA410C5FEA1C6C08D080EA010000F061
:1035D00050B85FEA400C5FEA1C6CF6D14FF0004037
:1035E000A0F5800070470EF1020E2EF0030E5EF87B
:1035F000044B244204D44FEA4102B2F17F4F11D868
:103600004FEA4003B3F17F4F0CD80ED14FEAD07C84
:10361000B2F17F4F0CEB4C0C0CF1020C08BF4CEBE1
:10362000D17C04E04FF0080C01E04FEAD17C0CEBB8
:103630004C0324FA03F404F00704B4F1040C06D29A
:103640000EEB840CBDE810404CF0010C6047DFE845
:103650000CF0070802024FF00040A0F5800010BDFA
:103660000846420018BFD2F1807288BF00F00040C7
:1036700010BDFF2141EAD050C005704751EA000C4F
:1036800000F113801CF5000F58BFBCF5000F01D4EA
:103690008142704707D711F5000F58BF10F5000F92
:1036A00015D481427047894270471CF5000F04D53C
:1036B000BCF5000FF7D5884270474FF0807C1CEBBB
:1036C000410F38BF1CEB400F01D28842704780EA9F
:1036D000010081EA000180EA0100FFF7F8BE000066
:1036E00090EA010F48BF81F000413FF52CAE421A2D
:1036F00004D882F00042A0EB020011444FEAD052FD
:103700004FF07F4C1CEA410FA2EBD15318BF9CEA4B
:10371000026F4AD04FF0004C4CEA00204CEA0121E5
:1037200021FA03FCB0EB0C0C0FD412F0FE0F36D0D4
:103730005FEA4C001DD5001240EBC25038BF704705
:103740001CF03F0F18BF70470BE0A2F101025FEAC7
:103750001C2040EBC25038BF70471CF07F0F18BFD1
:103760007047C3F12003994014BF401E20F00100B0
:10377000704780084FEA122308BF7047B0FA80FCF8
:10378000A2EB0C02CCF1280C60FA0CF093EA122F99
:1037900004BF00EBC25070474FEAC3707047130A72
:1037A0005FEADC1008BF7047F6E79CEA026F04D0BE
:1037B00010EA5C0F08BF0020704710B5FFF713FF39
:1037C00040DFF63E81F0004070470000EC37000813
:1037D00000000020D40100006C01000844380008FB
:1037E000D401002054080000C8010008012584A26B
:1037F0004A04E00901020304060708092916691AA8
:103800000532020406082A010101D7480D666656F2
:10381000419A99D93FCDCCC8420C2B19400C1A9033
:10382000F163E8031D64FC3EC3042E43CA43CE4249
:1038300008590C9AC218290C691842420B14DC056D
:043840000400000080
:040000050800020DE0
:00000001FF
